:100000000C948C050C94B4050C94B4050C94C7188E
:100010000C94ED180C94B4050C94B4050C94B40530
:100020000C94B4050C94B4050C94402E0C94092D3A
:100030000C94B4050C94B4050C94B4050C94B4055C
:100040000C94B4050C94B4050C94B4050C94B4054C
:100050000C94B4050C94B4050C94B4050C94D624FB
:100060000C94B4050C94A1280C94D3280C94B405DA
:100070000C94B4050C94B4050C94B4050C94B4051C
:100080000C94B4050C94B4050C94B4050C94B4050C
:100090000C9435210C94B4050C94B4050C94B4055F
:1000A0000C94B4050C94B4050C94B4050B0D0B0D15
:1000B0007E0DBC0DEA0D410ED50ED50EB60C3110DD
:1000C00056108210DB1052112E12C31189124413E4
:1000D00063132D13171C191C211C291C311C3F1CD8
:1000E000561C561C561C4E1C501C521C561C541C94
:1000F000E91D741E951E991EA71E1E1FF21EF81ED6
:1001000021262426132617261D2645264526452664
:1001100028262C26302636263A26452640260763F2
:100120004236B79BD8A71A39685618AEBAAB558C69
:100130001D3CB7CC5763BD6DEDFD753EF6177231B2
:10014000BF000000803F05A84CCDB2D44EB9383670
:10015000A9020C50B9918688083CA6AAAA2ABE001A
:100160000000803F08000000BE922449123EABAA66
:10017000AA2ABECDCCCC4C3E00000080BEABAAAAC1
:10018000AA3E00000000BF000000803F0000000009
:1001900000084178D3BB4387D1133D190E3CC3BD42
:1001A0004282AD2B3E68EC8276BED98FE1A93E4CEF
:1001B00080EFFFBE01C4FF7F3F0000000000000091
:1001C000000000000000000000000000000000002F
:1001D000000000000000000000000000000000001F
:1001E000000000000000000000000000000001010D
:1001F00001010101010101010101010101010101EF
:1002000001010101010101010101010101010101DE
:1002100001010101010101010101010101010101CE
:1002200001010101010101010101010101010101BE
:1002300001010101010101010101010101010101AE
:100240000101010202020202020202020202020291
:10025000020202020202020202020202020202027E
:10026000020202020202020202020202020202026E
:10027000020202020202020202020202020202025E
:100280000202020202020202020202030303030349
:10029000030303030303030303030303030303032E
:1002A000030303030303030303030303030303031E
:1002B000030303030303030303030303030303030E
:1002C00003030303030303030404040404040404F6
:1002D00004040404040404040404040404040404DE
:1002E00004040404040404040404040404040404CE
:1002F00004040404040404040404040405050505BA
:10030000050505050505050505050505050505059D
:10031000050505050505050505050505050505058D
:100320000505050505050505050506060606060677
:10033000060606060606060606060606060606065D
:10034000060606060606060606060606060606064D
:10035000060607070707070707070707070707072F
:10036000070707070707070707070707070707071D
:100370000707070707080808080808080808080802
:1003800008080808080808080808080808080808ED
:1003900008080808080909090909090909090909D2
:1003A00009090909090909090909090909090909BD
:1003B000090A0A0A0A0A0A0A0A0A0A0A0A0A0A0A9E
:1003C0000A0A0A0A0A0A0A0A0A0A0A0B0B0B0B0B88
:1003D0000B0B0B0B0B0B0B0B0B0B0B0B0B0B0B0B6D
:1003E0000B0B0C0C0C0C0C0C0C0C0C0C0C0C0C0C4F
:1003F0000C0C0C0C0C0C0C0C0D0D0D0D0D0D0D0D35
:100400000D0D0D0D0D0D0D0D0D0D0D0E0E0E0E0E17
:100410000E0E0E0E0E0E0E0E0E0E0E0E0F0F0F0FF8
:100420000F0F0F0F0F0F0F0F0F0F0F0F0F101112D6
:10043000131415070605040100080A0B0C0D09002A
:1004400000000200090F0000030401000C0000007E
:10045000000000000000000000000000000408028E
:10046000011040804010204080408008020401803C
:1004700040201002011080102040400404040404B5
:100480000304050202020204030202020206060637
:1004900006060604040202020400000000230026EF
:1004A0000029002C002F0000000000250028002B50
:1004B000002E00310000000000240027002A002D3B
:1004C000003000080B0002020201000904000001D4
:1004D000020200000524001001052401010104248A
:1004E00002060524060001070581031000400904E7
:1004F0000100020A00000007050202400000070593
:10050000830240000000000000000000002A2B28A9
:1005100000000000000000000000000000000000DB
:1005200000000000002C9EB4A0A1A2A434A6A7A5A0
:10053000AE362D3738271E1F20212223242526B32F
:1005400033B62EB7B89F8485868788898A8B8C8D31
:100550008E8F909192939495969798999A9B9C9D43
:100560002F3130A3AD350405060708090A0B0C0D21
:100570000E0F101112131415161718191A1B1C1D23
:10058000AFB1B0B500090402000203000000092168
:100590000101000122190507058403400001070538
:1005A000050340000105010904A10185040901A119
:1005B00000093016018027FF7F0000350047FFFF4C
:1005C0000000751095018102093116000027FFFF18
:1005D0000000350047FFFF000075109501810209FA
:1005E0003216000027FF0F0000350047FF0F000004
:1005F000750C95018102093316000027FF0F0000DA
:10060000350047FF0F0000750C95018102C00509F8
:100610001901292015002501750195205500650057
:100620008102050F0992A1028502099F09A009A470
:1006300009A509A615002501350045017501950597
:1006400081029503810309941500250135004501B8
:1006500075019501810209221501252835014528DA
:10066000750795018102C00921A1028501092215A2
:10067000012528350145287508950191020925A114
:1006800002092609270930093109320933093409D9
:10069000400941094209430928250C150135014546
:1006A0000C750895019100C00950095409511500B5
:1006B00026FF7F350046FF7F66031055FD751095B8
:1006C00003910255006600000952150026FF00350F
:1006D0000046102775089501910209531501250858
:1006E000350145087508950191020955A1020501DA
:1006F0000930093115002501750195019102C005E8
:100700000F095695019102950691030957A1020B15
:1007100001000A000B02000A0066140055FE1500D5
:1007200026B400350047A08C0000660000750895CF
:100730000191025500660000C0050F66031055FDCB
:10074000150026FF7F350046FF7F75109501660076
:10075000005500C0050F095AA102850209221501A2
:10076000252835014528750895019102095B095D29
:10077000150026FF00350046102795029102095CFE
:10078000095E66031055FD26FF7F46FF7F751091B9
:100790000245006600005500C0095FA102850309FB
:1007A0002215012528350145287508950191020972
:1007B00023150025013500450175049501910209B5
:1007C00058A1020B01000A000B02000A00750295F5
:1007D000029102C01580257F36F0D84610270960A7
:1007E00075089501910236F0D846102709619501E8
:1007F0009102150026FF00350046102709630964A1
:10080000750895029102C0096EA10285040922159E
:1008100001252835014528750895019102097015B3
:100820000026FF0035004610277508950191020942
:100830006F1580257F36F0D8461027950191020963
:100840007166140055FE150026FF00350047A08C88
:1008500000009102097226FF7F46FF7F6603105554
:10086000FD7510950191026600005500C00973A145
:1008700002850509221501252835014528750895A9
:1008800001910209701601FF26FF0036F0D84610CC
:1008900027751095019102C00974A10285060922ED
:1008A000150125283501452875089501910209751E
:1008B00009761580257F36F0D846102775089502F1
:1008C0009102C00968A10285070922150125283572
:1008D000014528750895019102096C15002610271D
:1008E000350046102775109501910209691581257B
:1008F0007F350046FF007508950C920201C009661D
:10090000A10285080501093009311581257F3500CF
:1009100046FF00750895029102C0050F0977A102F4
:10092000850A0922150125283501452875089501F4
:1009300091020978A1020979097A097B1501250339
:10094000750895019100C0097C150026FF0035004F
:1009500046FF009102C00990A102850B09222528BB
:10096000150135014528750895019102C00996A128
:1009700002850C099709980999099A099B099C1500
:10098000012506750895019100C0097DA102850D1C
:10099000097E150026FF00350046102775089501D1
:1009A0009102C0096BA102850E0922150125283587
:1009B000014528750895019102096D150026FF0073
:1009C000350046FF00750895019102095166031034
:1009D00055FD150026FF7F350046FF7F75109501F8
:1009E00091025500660000C009ABA10285050925EA
:1009F000A1020926092709300931093209330934CE
:100A000009400941094209430928250C150135010E
:100A1000450C75089501B100C00501093B1500267C
:100A2000FF01350046FF01750A9501B1027506B157
:100A300001C0050F0989A102850609222528150193
:100A40003501452875089501B102098BA102098C71
:100A5000098D098E2503150135014503750895019A
:100A6000B100C009AC150027FFFF0000350047FFAB
:100A7000FF000075109501B100C0097FA102850734
:100A80000980751095011500350027FFFF0000470C
:100A9000FFFF0000B102098326FF0046FF00750832
:100AA0009501B10209A909AA750195021500250150
:100AB00035004501B10275069501B103C0C000C102
:100AC0008081C1C012010002020000404123368033
:100AD0000001010200011201000200000040412358
:100AE000368000010102000141726475696E6F2059
:100AF0004C4C430041726475696E6F204C656F6E9B
:100B00006172646F0004030904006D200821A127AD
:100B10000329C22ADF2E582011241FBECFEFDAE0AE
:100B2000DEBFCDBF11E0A0E0B1E0E0EAF9E602C02F
:100B300005900D92A23DB107D9F728E0A2EDB1E0F2
:100B400001C01D92A335B207E1F71BE0C6E1DBE06F
:100B500004C02297FE010E945133CA30D107C9F761
:100B60000E94D02A0C94C3340C940000FC018085B0
:100B70000E94B52621E0892B09F020E0822F0895FC
:100B80000F931F93CF93DF938C01C0E0D0E0F80167
:100B9000EC0FFD1FEC5BFF4F80818F3F19F061E090
:100BA0000E9446262196C430D10589F7DF91CF9166
:100BB0001F910F910895CF93DF93EC0161E08BE0DB
:100BC0000E9446268BA1813021F461E08AE00E94D8
:100BD00046268BA1823021F461E08AE00E944626FD
:100BE00088EA8093800081E180938100C657DE4FC0
:100BF000888199819093870080938600DF91CF91BF
:100C0000089560E08BE00E94462660E08AE00E9442
:100C1000462660E08AE00C9446269B0177FF05C0DB
:100C200031952195310960E001C061E0FC01E65792
:100C3000FE4F80819181AC0149505109241735073D
:100C40001CF09C012A50310930938D0020938C00B8
:100C50008AE00C947F266A3071057CF0FC01E6572F
:100C6000FE4F808191819C012950310962177307E1
:100C700034F0BC016A50710902C06AE070E0709300
:100C80008D0060938C00089580916B0590916C05A8
:100C900077FF15C071956195710910928D001092C2
:100CA0008C009C01295031096217730714F00A97D0
:100CB00001C0CB0190938B0080938A0008959C0122
:100CC00029503109621773071CF0BC016A50710981
:100CD00070938D0060938C0010928B0010928A00AC
:100CE0000895CF92DF92EF92FF920F931F93CF93CD
:100CF000DF931F92CDB7DEB78B016B01E82EF12C8D
:100D0000E61AF70A8C2D801B841758F4C7018C0D46
:100D10009D1D49830E94AD34F60181936F01498185
:100D2000F1CF0F90DF91CF911F910F91FF90EF9036
:100D3000DF90CF900895CF92DF92EF92FF920F93C2
:100D40001F93CF93DF931F92CDB7DEB78B016B015B
:100D5000E82EF12CE61AF70A8C2D801B841758F424
:100D6000C7018C0D9D1DF60161916F0149830E94A1
:100D7000B5344981F1CF0F90DF91CF911F910F9141
:100D8000FF90EF90DF90CF900895CF92DF92EF9297
:100D9000FF920F931F93CF93DF93EC016A017B01C6
:100DA000FC01E856FE4F408351836283738360E405
:100DB00072E48FE090E0A70196010E940E33FE01DD
:100DC000E057FE4F20833183428353838E010C56BC
:100DD0001E4FCA01B90128EE33E040E050E00E9406
:100DE0003033F8012083318342835383C701B60136
:100DF0000E94303027E137EB41E559E30E94E630AD
:100E0000FE01E456FE4F6083718382839383C05654
:100E1000DE4F9B01AC010E94E630688379838A83B0
:100E20009B83DF91CF911F910F91FF90EF90DF9007
:100E3000CF900895FC0140E150E06FEE7EE24083E8
:100E4000518362837383148215821682178244E869
:100E500053E060E070E0408751876287738740E12C
:100E600057E260E070E04487558766877787108A8D
:100E700080E1818B8FE7808F878B868B858B848B3E
:100E8000838B828B97E0928F9DE0938F848F80E499
:100E9000858F11A210A2178E168E12A281E083A355
:100EA0008FEF818F80E090E03FEFDF01A80FB91F47
:100EB0002FEF94963C93019684329105B1F7DF01B0
:100EC000AC5BBF4F8DE08C931C9680E090E1119657
:100ED0009C938E9317972C93199611969C938E93AF
:100EE00018972C931A9611969C938E9319972C937E
:100EF0001B9611969C938E931E9780EF8C9314965D
:100F000081E08C93119690E19C93119692E39C93CF
:100F100011968C9319968EEF8C9311968C93119653
:100F20008C93E55AFF4F808308954CE5BC0180E027
:100F30000C949B06CF93DF93EC01CB01BA012C8577
:100F40003D854E855F850E9430336C837D838E8323
:100F50009F83CE01DF91CF910C949507FC01108205
:100F600011821282138214821582168217821086D1
:100F7000DC01A657BF4F1C9280E090E0DF01A80F74
:100F8000B91F19961D921D921D921C921C970496D2
:100F90008038910599F708957F928F929F92AF9232
:100FA000BF92CF92DF92EF92FF920F931F93CF9356
:100FB000DF93EC0188819981AA81BB8148835983A1
:100FC0006A837B832885222309F454C08E01065747
:100FD0001F4FF801B080FE0124E0B29EE00DF11D2C
:100FE0001124481B590B6A0B7B0B4187528763877F
:100FF0007487FE01E757FF4F808077247A94780C3E
:101000009B2CA12CC12CD12C7601A814D9F0FE0167
:1010100084E0989EE00DF11D112461857285838521
:1010200094850E9432309B01AC01C701B6010E9439
:101030002F2F6B017C01992011F09A9401C0972CFD
:10104000A394E3CF6A2D70E080E090E00E943230FC
:101050009B01AC01C701B6010E94972FB394F80120
:10106000BA1410F4B08201C01082562F472F382FC7
:10107000292F0AC081E088871C821D821E821F8260
:1010800050E040E030E020E0652F742F832F922F56
:10109000DF91CF911F910F91FF90EF90DF90CF9054
:1010A000BF90AF909F908F907F9008954F925F92E6
:1010B0006F927F928F929F92AF92BF92CF92DF9268
:1010C000EF92FF920F931F93CF93DF93CDB7DEB7CD
:1010D0002C970FB6F894DEBF0FBECDBF4B015C015D
:1010E00029013A01E986FA860B871C8720E030E067
:1010F000A9010E94E230181644F0D501C401B0588D
:1011000089839A83AB83BC8304C089829A82AB8231
:10111000BC82C301B2010E9432302B013C01C0905D
:101120007D05D0907E05E0907F05F0908005698573
:101130007A858B859C8590958095709561957F4F7C
:101140008F4F9F4F0E9432306D837E838F839887AD
:10115000A301920169817A818B819C810E94E63092
:10116000A70196010E94E6302D813E814F8158856E
:101170000E94932F87FD33C020E030E0A901C50114
:10118000B4010E94E230181644F0D501C401B058F1
:1011900089839A83AB83BC8304C089829A82AB82A1
:1011A000BC8269857A858B859C850E9432306D83EF
:1011B0007E838F839887A301920169817A818B81D5
:1011C0009C810E94E630A70196010E94E6302D81A5
:1011D0003E814F8158850E94E23018162CF46D81B3
:1011E0007E818F81988517C020E030E0A901C5017C
:1011F000B4010E94E230181624F0C501B4019058E1
:1012000002C0C501B401A30192010E94E630A7010A
:1012100096010E94E6300E94FF2F6B017C0120E0C6
:1012200030E0A901C501B4010E94E230181644F46F
:1012300066277727CB016C197D098E099F090FC09E
:1012400020E030E0A901C501B4010E94932F87FD81
:1012500004C060E070E0CB0102C0C701B6012C966B
:101260000FB6F894DEBF0FBECDBFDF91CF911F91B7
:101270000F91FF90EF90DF90CF90BF90AF909F9035
:101280008F907F906F905F904F9008958F929F9274
:10129000AF92BF92CF92DF92EF92FF926B017C01EF
:1012A00049015A0120E030E0A9010E94E2301816FD
:1012B00094F020E030E0A901C701B6010E94932F0D
:1012C00087FF24C020E030E0A901C701B6010E94D9
:1012D0002F2F6B017C01F7FAF094F7F8F094C50119
:1012E000B4010E9432309B01AC01C701B6010E94DB
:1012F000E63020918105309182054091830550911F
:1013000084050E94E6300E94FF2F03C060E070E079
:10131000CB01FF90EF90DF90CF90BF90AF909F9068
:101320008F9008952F923F924F925F926F927F928B
:101330008F929F92AF92BF92CF92DF92EF92FF92E5
:101340000F931F93CF93DF9300D000D0CDB7DEB7BC
:101350001C014A015B0109831A832B833C83409063
:101360006D0550906E0560906F05709070057594D6
:1013700067945794479488279927DC018419950925
:10138000A609B70988169906AA06BB0634F04814C0
:1013900059046A047B040CF080C020E030E0A9010D
:1013A00069817A818B819C810E94E23087FD03C034
:1013B000B7FE0EC025C020E030E0A90169817A8126
:1013C0008B819C810E94932F87FF25C0B7FE23C08D
:1013D000F101258DF4E02F0290011124442737FDFF
:1013E0004095542FE12C14E0F12E00E010E06981CB
:1013F0007A818B819C810E9456086B017C010EC012
:1014000020E030E0A90169817A818B819C810E9472
:10141000932F87FDDDCFC12CD12C7601F10184857E
:101420009585A685B78547E0B595A7959795879546
:101430004A95D1F7840D951DA61DB71D4427552744
:10144000BA01481B590B6A0B7B0B84169506A6063E
:10145000B7062CF088159905AA05BB050CF5B7FC55
:1014600003C09C01AD0102C09A01AB0128193909E2
:101470004A095B09F101A48DF4E0AF02D001112407
:101480000E947E33BB2797FDBA95A92F982F872FEF
:10149000C80ED91EEA1EFB1E03C0C12CD12C76013A
:1014A000C701B6010F900F900F900F90DF91CF9171
:1014B0001F910F91FF90EF90DF90CF90BF90AF9072
:1014C0009F908F907F906F905F904F903F902F9064
:1014D00008958F929F92AF92BF92CF92DF92EF9238
:1014E000FF920F931F93CF93DF9369017A0124E05A
:1014F000629F80011124EC01C00FD11FFE01E85C46
:10150000FD4F80809180A280B38020E030E040E8F1
:101510005FE3C501B4010E94932F8823C1F0C70186
:10152000B6010E94323024E730E040E857E30E94E1
:10153000E630A50194010E94493120E03FEF4FE7DA
:1015400057E40E94E6300E94FF2F6B017C0140E1CE
:1015500050E0F801E259FE4F80819181481B590B00
:10156000D701C60104C0B595A795979587954A956B
:10157000D2F7AC01BD01F801EA5AFE4F808191819A
:10158000A281B381481759076A077B0764F0F80105
:10159000E25CFE4F80819181A281B381841795071F
:1015A000A607B70714F4AC01BD01C85EDD4F488340
:1015B00059836A837B83DF91CF911F910F91FF90B5
:1015C000EF90DF90CF90BF90AF909F908F90089555
:1015D000FC01E85DFD4F1082118212821382349665
:1015E000108211821282138234961082118212822A
:1015F000138234961082118212821382E25BFF4FB3
:1016000010821182128213820895FC018089843035
:1016100044F440E052EC61E070E088E497E00C9420
:101620009B270895FC01862F60836F3F19F060E0CF
:101630000C94462608954F3FC9F020E8240F203629
:1016400088F450E040585109559547955595479570
:1016500062E1640F4D5B5E4F440F551F840F951F71
:101660000C94120B62E0842F0C9446260895CF93BD
:10167000DF93EC01198288818F3F69F00E94D825A1
:10168000853722E0920714F084E792E0FC01E254EF
:10169000FE4F84918983DF91CF9108956F927F925D
:1016A0008F929F92AF92BF92CF92DF92EF92FF9272
:1016B0000F931F93CF93DF93EC0100E010E07C01C8
:1016C0004AE7E41A4DEFF40AC701800F911F0E9408
:1016D000370B0E5F1F4F00311105B1F7612C712CD4
:1016E000812C912C54018394C12CD12C760101E0E2
:1016F00010E0FE01E60DF71D84A18F3F59F190E83F
:10170000980F9036F8F4282F2370A80102C0440FD8
:10171000551F2A95E2F79A0190E080589109959516
:10172000879595958795880F991F8C0F9D1FFC01B4
:10173000E957FD4F808190E082239323821793071E
:1017400029F408C00E94B526892B21F4C828D9287D
:10175000EA28FB28880C991CAA1CBB1C5FEF651AA1
:10176000750A80E26816710421F6C701B601DF919F
:10177000CF911F910F91FF90EF90DF90CF90BF908E
:10178000AF909F908F907F906F900895CF93FC01C2
:10179000C62F648F108211821282138214821582E6
:1017A0001682178210861186128613861486158675
:1017B00016861786693041F04FEF5FEFBA01408B14
:1017C000518B628B738B0BC0108A118A128A138A19
:1017D0004FEF5FEFBA014487558766877787148A92
:1017E000158A168A178A108E118E128E138E81E535
:1017F00094E00E94AE071092D703C83019F481E03C
:101800008093D703CF9108950F931F93CF93DF93C6
:10181000EC0110E00DE180912D04181710F5212F37
:1018200030E0FE01E20FF31FE85BFF4F8081805F35
:101830008F3048F4029FC001039F900D1124885BF4
:101840009D4F65E008C0029FC001039F900D1124C9
:10185000885B9D4F63E08C0F9D1F0E94C60B1F5F2E
:10186000DACFDF91CF911F910F9108953F924F9260
:101870005F926F927F928F929F92AF92BF92CF9220
:10188000DF92EF92FF920F931F93CF93DF9300D0DD
:1018900000D0CDB7DEB78C016A017B0181E594E011
:1018A0000E94CC070E94FF2F69837A838B839C83DD
:1018B000AB01BC014D5E5F4F6F4F7F4FF801473268
:1018C00051056105710568F4448155816681778110
:1018D0004F5F5F4F6F4F7F4F44835583668377839E
:1018E0000CC040855185628573854F5F5F4F6F4F98
:1018F0007F4F4087518762877387F8012489358934
:10190000468957892F5F3F4F4F4F5F4F248B358B51
:10191000468B578B108211821282138249015A0121
:1019200062E0B594A794979487946A95D1F7B4012F
:10193000C501F6E08F169104A104B10424F065E01E
:1019400070E080E090E00E94FE322B013C01F80143
:10195000348C432D50E0415051094930510508F075
:1019600024C24A5A5F4FFA010C944F33F801448560
:101970005585668577853C2D2D2D9E2D8F2D4C15FB
:101980005D056E057F0524F4342F252F962F872FB4
:10199000F80134872587968787874089518962892E
:1019A0007389C416D506E606F70614F46A017B01AE
:1019B000F801C08AD18AE28AF38A40917905509170
:1019C0007A0560917B0570917C05440F551F661F59
:1019D000771FC480D580E680F7804C155D056E05C5
:1019E0007F050CF0C7C188E0848F408551856285F2
:1019F000738544315105610571050CF0BBC1148636
:101A00001586168617864FEF5FEFBA01408B518B14
:101A1000628B738BAFC128EC30E040E050E02C19B2
:101A20003D094E095F09C501B401613871058105A1
:101A3000910524F060E870E080E090E00E94FE32C2
:101A4000472F582F692F772767FD7A95493C510515
:101A50006105710524F048EC50E060E070E0483327
:101A6000FFEF5F076F077F0724F448E35FEF6FEF37
:101A70007FEFF8014083518362837383409179053E
:101A800050917A0560917B0570917C05440F551F3C
:101A9000661F771FC480D580E680F7804C155D05F2
:101AA0006E057F053CF485E0848F148A158A168ABA
:101AB000178A60C1F80140855185628573854B3F67
:101AC0005105610571050CF455C1F1E03F1252C199
:101AD000F8011482158216821782108611861286EA
:101AE0001386F8941092D2031092D3031092D40369
:101AF0001092D503789482E0F80163C080916B0561
:101B000090916C05029744F04FEF5FEFBA01F80136
:101B100040835183628373832091790530917A05E4
:101B200040917B0550917C05A3E0B0E00E947333A7
:101B3000F80184809580A680B780681579058A05AC
:101B40009B050CF017C11482158216821782C48679
:101B5000D586E686F78640815181628173817095D2
:101B60006095509541955F4F6F4F7F4F40835183F4
:101B70006283738384E025C02091790530917A05D2
:101B800040917B0550917C05A3E0B0E00E94733347
:101B9000F80184809580A680B780681579058A054C
:101BA0009B050CF0E7C04085518562857385443103
:101BB0005105610571053CF4148615861686178655
:101BC00087E0848FD7C0F801C08AD18AE28AF38A7D
:101BD00086E0F7CF8091030481FF06C0F8011482EC
:101BE00015821682178231C0A30192012C193D097A
:101BF0004E095F09C501B401613871058105910580
:101C000024F060E870E080E090E00E94FE32472F10
:101C1000582F692F772767FD7A95493C5105610553
:101C2000710524F048EC50E060E070E04833FFEFCD
:101C30005F076F077F0724F448E35FEF6FEF7FEFE5
:101C4000F801408351836283738320917905309139
:101C50007A0540917B0550917C05AAE0B0E00E9496
:101C60007333F801C480D580E680F7806C157D055C
:101C70008E059F050CF49DC08091D703811199C0FA
:101C800079C04091E5035091E6036091E7037091BC
:101C9000E80377FF08C07094609450944094411C0E
:101CA000511C611C711C441A550A660A770AA3016B
:101CB00092012C193D094E095F09C501B401613833
:101CC00071058105910524F060E870E080E090E006
:101CD0000E94FE32472F582F692F772767FD7A958C
:101CE000493C51056105710524F048EC50E060E085
:101CF00070E04833FFEF5F076F077F0724F448E386
:101D00005FEF6FEF7FEFF80140835183628373834E
:101D10002091790530917A0540917B0550917C05A1
:101D2000AAE0B0E00E947333C480D580E680F780DB
:101D30006C157D058E059F053CF487E0848F10822D
:101D400011821282138216C0B301A2014C5F5F4F51
:101D50006F4F7F4F493051056105710558F488E098
:101D6000F801848F81E594E00E94AE078CED94E049
:101D70000E94AE07F80180809180A280B3806981C3
:101D80007A818B819C810E943230E12C14E0F12E0B
:101D900000E010E020E230E040E050E00E94560811
:101DA000680D791D8A1D9B1D2CC060E070E0CB0181
:101DB00028C08091D703811108C087E0F801848F83
:101DC000108211821282138212C08091030481FF5B
:101DD00002C088E001C086E0F801848FF801408EDF
:101DE000518E628E738E81E594E00E94AE07F801F9
:101DF000148A158A168A178A148215821682178207
:101E0000B9CF0F900F900F900F90DF91CF911F914E
:101E10000F91FF90EF90DF90CF90BF90AF909F9089
:101E20008F907F906F905F904F903F9008952F928A
:101E30003F924F925F926F927F928F929F92AF925A
:101E4000BF92CF92DF92EF92FF920F931F93CF93A7
:101E5000DF93CDB7DEB7A2970FB6F894DEBF0FBE03
:101E6000CDBF1C0170E09B012A573F4F220F331F4B
:101E7000220F331F280F391FD9018D919D910D908D
:101E8000BC91A02D8D839E83AF83B8872DE1269FC3
:101E9000C001279F900D1124F101E80FF91FEC59A3
:101EA000FD4F2081283011F1885B9D4F4D815E816F
:101EB0006F817885820D931DA2960FB6F894DEBFD0
:101EC0000FBECDBFDF91CF911F910F91FF90EF908B
:101ED000DF90CF90BF90AF909F908F907F906F904A
:101EE0005F904F903F902F900C94360C81010857D3
:101EF0001E4F8FE7F8018083D10159968C918F3F57
:101F000049F00E94D82573E0959587957A95E1F779
:101F1000F80180834D815E816F817885C101805990
:101F20009F4F0E94CC0769877A878B879C8720E028
:101F300030E048EC52E40E94E6300E94FF2FAB01F3
:101F4000BC01C10185509F4F0E94CC076B8B7C8BDD
:101F50008D8B9E8B20917505309176053C8F2B8F54
:101F60001A8A198A412C512C320149895A894550C3
:101F70005E4F5AA349A3DA018C918370833009F034
:101F8000D5C35C968D919C915D97892B71F050968D
:101F90002D913C9151975C968D919C915D9728175E
:101FA000390718F08C918D7F8C93E9A1FAA1A28555
:101FB000B385228130E00E946C336B017C0156E0D6
:101FC000F594E794D794C7945A95D1F7008911896D
:101FD0004801A12CB12C8685978563E0880F991F55
:101FE0006A95E1F79C01442737FD4095542F2D87D2
:101FF0003E874F87588B80A191A1892B41F0208982
:10200000318980A191A12817390708F4A5C4A9A195
:10201000BAA15E968D919C915F97892B61F0509645
:102020002D913C91519792968D919C919397281761
:10203000390708F0C4C4E9A1FAA1808991892B8DE0
:102040003C8D820F931F918B808B818190E0FC01EE
:102050003197EB30F10508F069C3E15AFF4F0C945A
:102060004F33F101A689BB27A7FDB095A7019601C3
:102070000E947E3347E095958795779567954A95B9
:10208000D1F76130F4E07F078105910524F060E02D
:1020900074E080E090E0DC01CB0181152CEF920729
:1020A0002FEFA207B2070CF0D4C1CFC1A9A1BAA1EA
:1020B0001696CC9016971796AC91E9A1FAA1868155
:1020C000BB27A7FDB095A81BB10987FDB395448D2B
:1020D000558DDD24C7FCD094ED2CFD2C98010E9479
:1020E0006C339A0140E050E00E943033C20ED31EA0
:1020F000E41EF51E33E0CC0CDD1CEE1CFF1C3A95F3
:10210000D1F754C0F101A789BB27A7FDB095A7015E
:1021100096010E947E336B017C0187E0F594E79481
:10212000D794C7948A95D1F7A9A1BAA152962D91B7
:102130003C91539752960D911C91539740E050E07B
:10214000C501B4010E9430331695079520E030E0B8
:10215000601771078207930740F0F094E094D094E1
:10216000C094C11CD11CE11CF11C2D853E854F85FE
:102170005889C20ED31EE41EF51E31E0C31634E0AA
:10218000D306E104F1042CF0C12C04E0D02EE12CA4
:10219000F12CC1144CEFD4064FEFE406F40634F4EE
:1021A000C12C1CEFD12EEE24EA94FE2C4C185D08B5
:1021B0006E087F08BBC2A9A1BAA154962D913D918A
:1021C0004D915C91579758966D917D918D919C9111
:1021D0005B970E942F2FE9A1FAA1608F718F828FE8
:1021E000938FF101A789BB27A7FDB095A7019601A1
:1021F0000E947E336B017C01A9A1BAA158968D90F3
:102200009D90AD90BC905B971C966D917C911D97B5
:10221000882777FD8095982F0E94323025EB39ED85
:1022200049EC5CE30E94E6309B01AC01C501B401BE
:102230000E942F2F0E9495319B01AC01C701B6016E
:10224000B7E09595879577956795BA95D1F72D8FD6
:102250003E8F4F8F58A30E9432302D8D3E8D4F8D73
:1022600058A10E94E6300E94FF2F2D853E854F85A4
:102270005889620F731F841F951F613034E0730704
:102280008105910524F060E074E080E090E0DC01DD
:10229000CB0181154CEF94074FEFA407B4070CF066
:1022A000D8C0D3C0F101A789BB27A7FDB095A7016E
:1022B00096010E947E336B017C01F7E0F594E79470
:1022C000D794C794FA95D1F7A9A1BAA152962D91A6
:1022D0003C91539740E050E0C501B4010E94303377
:1022E000E9A1FAA18288938896948794A12CB12CB5
:1022F0009B01AC0186169706A806B90688F0220F46
:10230000331F441F551FC701B6010E94FE32A501AD
:1023100094010E940E332C193D094E095F0918C023
:10232000281939094A095B09220F331F441F551F19
:10233000C701B6010E94FE32A50194010E940E332E
:10234000D701C601821B930BA40BB50B9C01AD01F9
:102350008D859E85AF85B889820F931FA41FB51FF9
:102360008130E4E09E07A105B10524F080E094E00F
:10237000A0E0B0E08115FCEF9F07FFEFAF07BF07BC
:102380000CF067C062C0F101A789BB27A7FDB0951B
:10239000A70196010E947E3369837A838B839C8395
:1023A000A9A1BAA152962D913C915397DC01CB0182
:1023B00047E0B595A795979587954A95D1F7898375
:1023C0009A83AB83BC83A9A1BAA152960D911C91AB
:1023D0005397C980DA80EB80FC808D859E85AF8520
:1023E000B889C80ED91EEA1EFB1E40E050E0C501A8
:1023F000B4010E9430339B01AC01220F331F441FF4
:10240000551F69817A818B819C810E94FE329801DF
:1024100040E050E00E940E33C21AD30AE40AF50AE3
:1024200091E0C91694E0D906E104F1042CF0C12C26
:1024300094E0D92EE12CF12CD701C601C114ECEFA8
:10244000DE06EFEFEE06FE0624F480E09CEFAFEF31
:10245000BFEF481A590A6A0A7B0A68C1F101A789C5
:10246000BB27A7FDB095A70196010E947E336B01A3
:102470007C01A9A1BAA152962D913C91539717E0E6
:10248000F594E794D794C7941A95D1F752960D9185
:102490001C91539740E050E0C501B4010E943033D5
:1024A0009B01AC01220F331F441F551FC701B6010A
:1024B0000E94FE32980140E050E00E940E33C21AA2
:1024C000D30AE40AF50A2D853E854F855889C21A3C
:1024D000D30AE40AF50A31E0C31634E0D306E10476
:1024E000F1042CF0C12CB4E0DB2EE12CF12CC11452
:1024F0004CEFD4064FEFE406F40634F4C12CACEFF5
:10250000DA2EEE24EA94FE2C4C0C5D1C6E1C7F1C13
:102510000DC1A9A1BAA11E968D919C911F97F101A1
:10252000A289BB27A7FDB095A70196010E947E3323
:102530006B017C0157E0F594E794D794C7945A95C2
:10254000D1F7A9A1BAA11E962D913C911F9719967A
:10255000EC91442737FD4095542F8D819E81AF81AA
:10256000B885281B390B4A0B5B0BC701B6010E94CB
:10257000FE32872E982EA92EBB24A7FCBA9494E095
:10258000E99FB0011124719561957109CB01AA27CA
:1025900097FDA095BA2F88169906AA06BB0664F483
:1025A000A9A1BAA119968C91B4E08B9FC001112406
:1025B00091958195910931C0E9A1FAA126853785C8
:1025C000E085442737FD4095542F8D819E81AF8152
:1025D000B885281B390B4A0B5B0BC701B6010E945B
:1025E000FE32872E982EA92EBB24A7FCBA9494E025
:1025F000E99FB0011124CB01AA2797FDA095BA2F1E
:1026000088159905AA05BB056CF4A9A1BAA118966D
:102610008C91B4E08B9FC0011124AA2797FDA0954F
:10262000BA2F80C0E9A1FAA126853785442737FD56
:102630004095542F8D819E81AF81B885281B390B21
:102640004A0B5B0BC701B6010E94FE32BB2797FD08
:10265000BA95A92F982F872F65C0F101A389BB27B1
:10266000A7FDB095A70196010E947E3326E09595BF
:102670008795779567952A95D1F77B018C0120E0A6
:1026800031E040E050E014C0F101A489BB27A7FD70
:10269000B095A70196010E947E33272F382F492F2E
:1026A000552747FD5A95E12C14E0F12E00E010E08B
:1026B00069857A858B859C850E945608460E571E33
:1026C000681E791E33C0F101A589BB27A7FDB0950F
:1026D000A70196010E947E339B01AC0119E055953C
:1026E0004795379527951A95D1F76B897C898D8900
:1026F0009E890E9446096130F4E07F0781059105BB
:1027000024F060E074E080E090E0DC01CB01811512
:102710002CEF92072FEFA207B20724F480E09CEF82
:10272000AFEFBFEF480E591E6A1E7B1E49895A89BA
:102730004C5D5F4F5A8B498B443D514009F015CC9D
:10274000F101E857FE4FA081BB27A7FDB095A3017B
:1027500092010E947E339B01AC01F101A189BB274C
:10276000A7FDB0950E947E334B015C01BEE0B5949D
:10277000A79497948794BA95D1F780916705882399
:10278000A1F14D815E816F8178857095609550953E
:1027900041955F4F6F4F7F4FA091FB03BB27A7FD74
:1027A000B0959A01AB010E947E33BB2797FDBA9585
:1027B000A92F982F872F880E991EAA1EBB1E209125
:1027C000FC03332727FD3095432F532FE12C14E0D2
:1027D000F12E00E010E069857A858B859C850E944A
:1027E0005608860E971EA81EB91EF101A68D1A1650
:1027F0008CF54D815E816F817885709560955095DF
:1028000041955F4F6F4F7F4FBB27A7FDB0959A0152
:10281000AB010E947E33BB2797FDBA95A92F982F55
:10282000872F8130F4E09F07A105B10524F080E0F7
:1028300094E0A0E0B0E081152CEF92072FEFA20703
:10284000B20724F480E09CEFAFEFBFEF880E991E33
:10285000AA1EBB1ED1015F96EC901E14A4F4EE0CD0
:10286000FF080027F7FC0095102F20E031E040E042
:1028700050E069857A858B859C850E945608860E76
:10288000971EA81EB91EF10120A11216A4F4332729
:1028900027FD3095432F532FE12C14E0F12E00E05B
:1028A00010E069857A858B859C850E945608860E86
:1028B000971EA81EB91ED10191962C91121634F5BF
:1028C000332727FD3095432F532F6B897C898D89C2
:1028D0009E890E9446096130B4E07B07810591051D
:1028E00024F060E074E080E090E0DC01CB01811531
:1028F000ECEF9E07EFEFAE07BE0724F480E09CEFFD
:10290000AFEFBFEF880E991EAA1EBB1E09851A8560
:102910002B853C854D815E816F817885C1010E9448
:102920009209680D791D8A1D9B1D6130F4E07F07B7
:102930008105910524F060E074E080E090E061158D
:102940002CEF72072FEF820792070CF07BC060E03C
:102950007CEF8FEF9FEF76C0A9A1BAA11496EC91FE
:10296000149790968D919C9191979C0140E050E036
:1029700029833A834B835C83A7019601C501B40187
:102980000E94FE326B017C0129813A814B815C817E
:10299000281939094A095B09AE2FB0E00E94733348
:1029A000C60ED71EE81EF91EC701B60129813A815D
:1029B0004B815C810E94303369017A0128CBA9A147
:1029C000BAA11596EC9115975E968D919C915F97A3
:1029D0009C0140E050E029833A834B835C839296CC
:1029E0008D919C919397A5019401281B390B410966
:1029F00051092F8B388F498F5A8F69817A818B814A
:102A00009C81621B730B840B950BA70196010E949E
:102A1000FE326B017C01AE2FB0E02F89388D498DDD
:102A20005A8D0E947333C60ED71EE81EF91EC701C9
:102A3000B60129813A814B815C810E943033690162
:102A40007A01F9CAA2960FB6F894DEBF0FBECDBFC9
:102A5000DF91CF911F910F91FF90EF90DF90CF907A
:102A6000BF90AF909F908F907F906F905F904F90AE
:102A70003F902F900895CF93DF93EC0160E80E9480
:102A8000A0244EE160E0CE01DF91CF910C94282488
:102A900070E0FB01E25EFE4FDB01A65EBE4F4081AF
:102AA0006C910C947522CF93662311F0C2E001C0A3
:102AB000C0E06C2F80E00E9446266C2F81E00E94CF
:102AC00046266C2F86E00E944626809169008F7C06
:102AD000806180936900EA9A809169008F738064B5
:102AE00080936900EB9ACF9108954F3FE9F02EEE65
:102AF000240F2C3020F460E0842F0C94462660E2F2
:102B0000640F603148F42DE1629F800D911D112406
:102B10008C559E4F0C944815405F4F3028F460E070
:102B200088ED93E00C9453150895EF92FF920F9364
:102B30001F93CF93DF93EC0180E090E02FEFFE0135
:102B4000E80FF91FEA57FD4F208302968031910567
:102B5000B1F700E010E0FE01E00FF11F44A1602F8B
:102B6000CE010E941B0B0F5F1F4F0032110599F71A
:102B70007E0100E010E0FE01E00FF11FE85BFF4F77
:102B80004081602FCE010E947515F701E85DFD4F71
:102B90001082118212821382709710821182128227
:102BA00013820F5F1F4F84E0E80EF11C0430110503
:102BB00011F7498D4F3F51F06FEFCE01DF91CF916B
:102BC0001F910F91FF90EF900C947515DF91CF91AD
:102BD0001F910F91FF90EF900895F8941092D703F2
:102BE0004093D2035093D3036093D4037093D503DF
:102BF00089B18C7090E09595879595958795809390
:102C0000D6037894089520E2260F203178F470E0FE
:102C1000605E71094DE1469F9001479F300D112480
:102C20002C553E4F820F931F0C943B15605F6F3005
:102C300038F440E050E0BA0188ED93E00C94ED15D3
:102C40000895EF92FF920F931F93CF93DF93EC01C0
:102C500000E010E0FE01E00FF11F64A1CE010E9430
:102C600003160F5F1F4F00321105A1F78E017E0181
:102C700084E0E80EF11CF801E85BFF4F6081CE01B3
:102C80000E9403160F5F1F4F0E151F05A1F7DF915E
:102C9000CF911F910F91FF90EF900895CF93DF9305
:102CA000EC010E949515CE010E942116CE01DF9104
:102CB000CF910C94E80A0F931F93CF93DF93F8946E
:102CC0004091D2035091D3036091D4037091D50306
:102CD000789480916D0590916E05A0916F05B091EB
:102CE0007005D82FC92FFA2FEB2F481759076A07FD
:102CF0007B0724F4D42FC52FF62FE72F00271127A9
:102D00009801081B190B2A0B3B0B6D2F7C2F8F2F63
:102D10009E2F601771078207930714F4C901B80149
:102D2000DF91CF911F910F9108953F924F925F9243
:102D30006F927F928F929F92AF92BF92CF92DF92CB
:102D4000EF92FF920F931F93CF93DF93EC013C011F
:102D50004C01412C512C33243A94FE01E40DF51D15
:102D6000E85BFF4F80819EEE980F9C3008F04FC0CB
:102D70000E94D825BC01882777FD8095982F209147
:102D80002D04421678F5F401EC59FD4F20812830CE
:102D900049F53C97E080F1800281138134972081CE
:102DA000318142815381621773078407950744F08C
:102DB000E616F706080719072CF4C801B70102C088
:102DC000CA01B9013F923F923F923F92A12CB12C90
:102DD00065010E94E62E70588F4F9F4F0F900F9005
:102DE0000F900F90F301E85EFD4F60837183828343
:102DF000938370960081118122813381060F171F02
:102E0000281F391F008311832283338316C0805FFC
:102E10008F3098F488ED93E00E945B160C811D8141
:102E20002E813F81601B710B820B930BF301E85ED7
:102E3000FD4F60837183828393838FEF481A580A12
:102E400084E0680E711C8DE1880E911C84E04816A8
:102E5000510409F082CFCE57DD4F88819981AA8134
:102E6000BB810196A11DB11D88839983AA83BB8371
:102E7000DF91CF911F910F91FF90EF90DF90CF9056
:102E8000BF90AF909F908F907F906F905F904F908A
:102E90003F900895EAE0F1E080818195819381E09F
:102EA000EA31F807C9F70895CF92DF92EF92FF92C7
:102EB0000F931F93CF93DF93EC01FC01E35BFF4F74
:102EC0008081803210F08FE180838081FE01E750A5
:102ED000FF4F8083E557FF4F8083E553F1408081AA
:102EE000833010F082E08083E081F0E0EE0FFF1F7E
:102EF000EA57FE4F80819181FE01E657FE4F918394
:102F000080838E0104571E4F2C853D854E855F853D
:102F1000688579858A859B850E94FE3228E631E0A6
:102F200040E050E00E943033F80120833183428337
:102F300053838AA180FF02C08FEF01C081E090918E
:102F40000B018902C001112497FF04C088ED93E0B2
:102F50000E944A177E0100E010E06701F8ECCF1AEA
:102F6000FDEFDF0AFE01E00FF11FE05BFF4F608124
:102F70007181882777FD8095982F0E94323020E05C
:102F800030E040E859E30E94E630F6016083718347
:102F9000828393830E5F1F4FF4E0EF0EF11C083025
:102FA0001105D9F6FE01E25BFF4F40818AE0489FA0
:102FB000A0011124662757FD6095762FCE01DF9181
:102FC000CF911F910F91FF90EF90DF90CF900C94D5
:102FD000C506CF93DF93EC010E941A07CE010E9431
:102FE0005417FE01EC59FD4F88E08083CF57DD4F29
:102FF0008883DF91CF910895CF93DF93EC0144E074
:10300000BC0180E00E947106488159816A817B8100
:1030100066277727403151056105710541F0CE01E2
:103020000E94E917CE01DF91CF910C94950740E102
:1030300050E06FEE7EE2488359836A837B8344E0ED
:10304000BE0180E00E949B064CE5BE0180E00E942C
:103050007106188ACE01DF91CF910C945417CF924C
:10306000DF92EF92FF920F931F93CF93DF938091A4
:10307000D603E9B12E2F2C70282B30E0C90195958D
:103080008795959587958093D6038091D2039091EB
:10309000D303A091D403B091D503E901C65FDE4FFD
:1030A0004881552747FD5095652F752F840F951F33
:1030B000A61FB71F8093D2039093D303A093D4038A
:1030C000B093D5039091D7038E2F8078992309F47C
:1030D00048C0882309F452C0C090ED03D090EE039D
:1030E000E090EF03F090F003970186013595279566
:1030F000179507958091D2039091D303A091D403A3
:10310000B091D503181619061A061B066CF46091C7
:10311000D2037091D3038091D4039091D503600FB3
:10312000711F821F931F0CC06091D2037091D30353
:103130008091D4039091D503601B710B820B930B8C
:10314000A70196010E943033C701B6010E94FE32EA
:103150006093D2037093D3038093D4039093D503E9
:103160000DC0882359F081E08093D7031092D203D9
:103170001092D3031092D4031092D503DF91CF9114
:103180001F910F91FF90EF90DF90CF9008951F92C5
:103190000F920FB60F9211242F933F934F935F938B
:1031A0006F937F938F939F93AF93BF93EF93FF930F
:1031B00088ED93E00E942F18FF91EF91BF91AF919E
:1031C0009F918F917F916F915F914F913F912F913F
:1031D0000F900FBE0F901F9018951F920F920FB671
:1031E0000F9211242F933F934F935F936F937F938D
:1031F0008F939F93AF93BF93EF93FF9388ED93E0EB
:103200000E942F18FF91EF91BF91AF919F918F91E5
:103210007F916F915F914F913F912F910F900FBED2
:103220000F901F901895E82FF0E0EB5DFB4F808129
:103230008F3F11F00C947F260895CF93DF93EC011C
:1032400061E081E00E94131960E0CE010E940A242F
:10325000683C7105810591051CF460E070E0CB01CC
:10326000DF91CF9108956F927F928F929F92AF924C
:10327000BF92CF92DF92EF92FF920F931F93CF9363
:10328000DF93EC017C0100E010E03DE1B32E6C0126
:103290008EE7C81A8DEFD80AA02EFE01E00FF11FAD
:1032A000E85BFF4F80819EEE980F9C30B8F4F701E9
:1032B000E85DFD4F608171818281938126E0660F18
:1032C000771F881F991F2A95D1F7F6012081318138
:1032D000428153810E943033602F3AC0805E80313A
:1032E000D0F5882E912CB89C3001B99C700C11241B
:1032F000FCE56F1AFEEF7F0A6C0E7D1EC3010E9473
:10330000B605882341F1C3010E941D198C0E9D1E34
:10331000F401E85AFF4F208127FD0AC03B014C0110
:1033200004C0660C771C881C991C2A95D2F70DC026
:10333000332721950CF430953B014C0104C0959442
:103340008794779467942A95D2F7A40193016A2D04
:10335000CE010E94690A0F5F1F4F84E0E80EF11C46
:103360000430110509F098CFDF91CF911F910F9193
:10337000FF90EF90DF90CF90BF90AF909F908F9095
:103380007F906F900895CF93DF9300D000D01F926D
:10339000CDB7DEB7FC018281863051F445E050E0C4
:1033A00062ED71E080E40E94AA2C1092D20113C059
:1033B000873099F489838FEF9FEF9B838A838DE019
:1033C0008C8383E08D8345E050E0BE016F5F7F4FCB
:1033D00080E40E94AA2C81E001C080E00F900F9051
:1033E0000F900F900F90DF91CF91089581E090E0C2
:1033F00024E2289FF001299FF00D1124E952FE4F8D
:103400003081311103C091E09083089501968E3090
:10341000910579F780E008958E3060F494E2899FF9
:10342000F0011124E952FE4F8081882319F0808138
:103430008D7F80830895CF93C1E08C2F0E940C1A5A
:10344000CF5FCE30D1F7CF9108958E3038F494E22B
:10345000899FF0011124E952FE4F1082089588EFF0
:1034600091E0E7EDF1E0DF019C011D922150304039
:10347000E1F70895EF92FF920F931F93CF93DF939D
:10348000EC01FC01E750FF4F18E0108380599F4F7B
:103490000E94AE07FE01EC57FE4F1083CE0185500F
:1034A0009F4F0E94AE078E010C551E4F7E0188EE85
:1034B000E81A8DEFF80AC8010E946F22035E1F4FC1
:1034C0000E151F05C1F79E012A573D4F80E090E081
:1034D0004FEFF901E80FF91F408311820296803106
:1034E0009105B9F781E0FE01EA57FE4F8083EA516A
:1034F000F14011821082188AE55EFE4F108280E052
:1035000090E0FE01E80FF91FE45AFF4F1082019688
:1035100080319105B1F7DF91CF911F910F91FF900D
:10352000EF900C942F1AFC0181818F3F11F40C94C1
:103530002F1A0C94251AFC01818192E09093CF03FD
:103540009091D00394609093D0039091D0039061B8
:103550009093D0031092D1038330A1F028F48130EE
:1035600049F0823059F008958530B1F080F086300E
:10357000B9F008958091D0038D7F15C08091D0035C
:10358000826011C0109267051092D103089581E006
:10359000809367050C942F1A8091D003816003C03B
:1035A0008091D0038E7F8093D0030895FC01228107
:1035B00030E030934E0420934D04838194819093A6
:1035C000500480934F04089594E2899FF0011124E0
:1035D000E952FE4F118A108A108E118E128E138EB0
:1035E000848D958D268D378D821B930B93A382A39B
:1035F0000895CF93DF938E3070F494E2899FE001B9
:103600001124C952DE4F9881992329F00E94E41AAF
:10361000888182608883DF91CF910895CF93DF9373
:103620001F92CDB7DEB7FC0181818F3F09F48FE790
:103630009281913031F0923049F489830E941B1AB3
:1036400089810F90DF91CF910C94F91A933029F46E
:103650000F90DF91CF910C940C1A0F90DF91CF91C6
:10366000089594E2899FF0011124E952FE4F758F6D
:10367000648F118A108A868D978D681B790B73A3CE
:1036800062A30895FC01DB01828114968C93149748
:10369000838115968C9315978481958191969C933F
:1036A0008E939097868197815F969C938E935E9779
:1036B0000895CF93DF93EC01FB018C8187FD80E0BF
:1036C000992787FD9095938782872B81332727FD44
:1036D0003095432F532F2F5F3F4F4F4F5F4F6091D8
:1036E0006D0570916E0580916F05909170059595AF
:1036F0008795779567950E94FE32B7E095958795F7
:1037000077956795BA95D1F7778766878D8180879A
:103710008E818187DF91CF910895CF92DF92EF92D2
:10372000FF920F931F93CF93DF93FC01EB018281F4
:1037300090E09B878A878381992787FD90959F8753
:103740008E87848190E09D878C87858196819B8B75
:103750008A8B1C8A1D8A1E8A1F8A8A899B89892BCB
:1037600019F10A891B896091750570917605809120
:103770007705909178050E9432302BED3FE049ECBF
:1037800050E40E94E6306B017C01B80180E090E0DB
:103790000E9430309B01AC01C701B6010E94972FF7
:1037A0006C8B7D8B8E8B9F8BDF91CF911F910F91B7
:1037B000FF90EF90DF90CF9008950F931F93CF93DA
:1037C000DF93EC018B0189819A81FB0191839985BB
:1037D00092836B817C810E94311B8A818C3029F419
:1037E0008F819885F801938B828B81E090E0DF9147
:1037F000CF911F910F910895FC016181F4E26F9FB9
:10380000B001112469527E4F0C94DD1BDC0111962E
:103810003C9111974C9150E0415051094E30510567
:1038200008F044C046595F4FFA010C944F330C9492
:10383000FC1BF4E23F9FB001112469527E4F0C94AF
:10384000421B24E2329FB001112469527E4F0C9436
:10385000591BA4E23A9FB001112469527E4F0C9487
:103860008D1BB4E23B9FF0011124E952FE4FDC01B5
:1038700012968D919C911397938782870895B4E255
:103880003B9FF0011124E952FE4FDC0112962C916E
:103890001297268313968C91878308950C940E1BA0
:1038A0000C94931A0C949B1A0C94D61A0895FB014D
:1038B000DC0111968C9181838FEF828384838583D1
:1038C000108611861386128615861486178616862C
:1038D00084E690E0938B828B158E148E178E168E55
:1038E00008950F931F93CF93DF9300D0CDB7DEB72A
:1038F000E62FF0E0DC0150968C91992787FD90959A
:103900008E179F071CF163E288E497E02A834983BE
:103910000E94DE264981642F88E497E00E94DE261B
:103920002A81622F88E497E00E94DE26602F88E4D7
:1039300097E00E94DE26612F88E497E00F900F90B9
:10394000DF91CF911F910F910C94DE260F900F9075
:10395000DF91CF911F910F910895AF92BF92CF92B7
:10396000DF92EF92FF920F931F93CF93DF93EC01BF
:103970005B018AA182FF03C0B194A194B1088501C3
:1039800020E040E064E0CE010E94711C6501EE245D
:10399000D7FCE094FE2CFE01E657FE4FA081B181DA
:1039A00095010E9455331AE095958795779567950F
:1039B0001A95D1F72BA1213059F030F0223059F46B
:1039C000CE010E94440607C0CE010E942B0603C010
:1039D000CE010E940D06C701B601DF91CF911F9164
:1039E0000F91FF90EF90DF90CF90BF90AF90089530
:1039F000CF93DF93EC01FC01E45BFF4F80818823D0
:103A000051F0CE010E94DB0560E070E0CE01DF9155
:103A1000CF910C94AD1CDF91CF910895CF93DF939C
:103A2000EC010E944E16CE010E94C005CE010E94FC
:103A3000F81CCE010E94040CCE01DF91CF910C94B2
:103A4000050B81EE93E00E94FC170E942C256093E9
:103A500078067093790680937A0690937B0660933C
:103A60007C0670937D0680937E0690937F0610926D
:103A7000770685EA9DE1909344088093430886E0A9
:103A80009CE1909346088093450881EE93E00C9466
:103A90000E1DCF93DF93EC0160E070E00E94AD1C3F
:103AA000CE01DF91CF910C940106EF92FF920F931C
:103AB0001F93CF93DF937C01EB0186E088830E9404
:103AC000F6198983811103C082E08A8315C091E0D1
:103AD0009A8394E2899FB001112469527E4FC701F5
:103AE0000E94571C098110E0F701218141E063E049
:103AF00081EE93E00E94711C8FEF9FEF9C838B837C
:103B0000DF91CF911F910F91FF90EF900895CF9388
:103B1000DF9300D000D0CDB7DEB7FC0182818530C5
:103B200061F464E070E0CE0101960E94DB2C62ED4E
:103B300071E0CE0101960E94551D81E00F900F901B
:103B40000F900F90DF91CF910895FC01218130817A
:103B5000313A29F4213049F40E94C31906C03132A8
:103B600021F4293011F40E94871D81E00895CF923D
:103B7000DF92EF92FF920F931F93CF93DF93EC01AD
:103B800088E497E00E940827892B09F457C188E44C
:103B900097E00E941827282FFE01EC59FD4F308135
:103BA0008E0109571E4FF801353041F48081811193
:103BB00045C1233509F042C165E041C0408150E074
:103BC0004830510508F03AC1FA01E858FF4F0C940B
:103BD0004F33992786359105F1F1B4F4803591057D
:103BE00061F14CF48334910509F44FC0843491059C
:103BF00009F464C023C182359105E1F18335910553
:103C000009F01CC1632F1BC080379105A1F044F45B
:103C100083369105D1F18436910509F44FC00EC168
:103C20008237910539F18437910509F007C181E0A8
:103C30008093D903DAC086E0D8C082E0D6C088E499
:103C400097E0DF91CF911F910F91FF90EF90DF9060
:103C5000CF900C94DE2644E050E0BE0188E497E06B
:103C6000DF91CF911F910F91FF90EF90DF90CF9058
:103C70000C942527CE01DF91CF911F910F91FF90DA
:103C8000EF90DF90CF900C94040C88ED93E00E94AD
:103C90005B16AB01BC01CE010E949A0781E594E05E
:103CA0000E94AE078CED94E0DF91CF911F910F91B0
:103CB000FF90EF90DF90CF900C94AE07CC80DD802A
:103CC000EE80FF80CE010E94E917CC82DD82EE8279
:103CD000FF82CE01DF91CF911F910F91FF90EF9066
:103CE000DF90CF900C9495074091D9039927E42F4A
:103CF000F0E0E95CFE4F2081332727FD30958217E5
:103D0000930781F481E0840F8093D903873009F011
:103D100095C04AE050E06DE271E088E497E00E94CF
:103D200025278AC01092D90387C08093E00383E0DF
:103D30005CC08093DF031092DA031092DB031092D1
:103D4000DC031092DD031092DE0384E04EC040914C
:103D5000DA035091DB036091DC037091DD03762F71
:103D6000652F542F4427422B4093DA035093DB03F3
:103D70006093DC037093DD038091DE038F5F80939B
:103D8000DE039091DF03891359C0F090E003F3E262
:103D9000FF1203C0CE010E94491D4091DF036AED6E
:103DA00073E08091E0030E949B06CE010E94FC1705
:103DB000CE010E9495158091E003833221F4CE015B
:103DC0000E94F81C0BC08F34D1F388EB8F0D863026
:103DD00028F46091DA03CE010E940316CE010E94FE
:103DE000C0052AC08093E00387E0F801808326C0E5
:103DF0008093DF038091E0038E3F11F0C0E008C0A4
:103E0000C857DE4F688188E497E00E94DE2614C020
:103E10008091DF03C81780F48091E00391E0980F50
:103E20009093E00390E00E94AD34682F88E497E01F
:103E30000E94DE26CF5FECCFF8011082DF91CF9198
:103E40001F910F91FF90EF90DF90CF9008958F9288
:103E50009F92AF92BF92CF92DF92EF92FF920F9319
:103E60001F93CF93DF930E942C256B017C018091DF
:103E7000780690917906A0917A06B0917B06B701F9
:103E8000A601481B590B6A0B7B0B80917105909121
:103E90007205A0917305B0917405481759076A0718
:103EA0007B0708F440C061E082E00E941319C092D1
:103EB0007806D0927906E0927A06F0927B0681EE3F
:103EC00093E00E949516C0E080912D04C81738F544
:103ED0006C2F81EE93E00E94170F81EE93E00E9419
:103EE000AD1C97FF07C090958095709561957F4FA9
:103EF0008F4F9F4F00916B0510916C05222717FD86
:103F00002095322F41E060177107820793070CF468
:103F100040E0642F80E00E941319CF5FD5CF60E0AE
:103F200082E00E94131980917C0690917D06A091F9
:103F30007E06B0917F06A7019601281B390B4A0B1C
:103F40005B0BDA01C901813A9F40A105B10508F474
:103F500067C061E083E00E941319C0927C06D09292
:103F60007D06E0927E06F0927F0681EE93E00E944D
:103F7000331981EE93E00E944E0B6B017C0120917E
:103F8000F9053091FA054091FB055091FC05AFEF22
:103F9000BFEF0E94733320916D0530916E05409103
:103FA0006F05509170050E943033211580E8380765
:103FB0004105510524F02FEF3FE740E050E0CA01F2
:103FC000B901613020E872072FEF8207920724F4CD
:103FD00061E070E88FEF9FEF6093F9057093FA0549
:103FE0008093FB059093FC05009105061091060651
:103FF00020910106309102064091FD055091FE0589
:1040000085E398E00E94BE2981EE93E00E94E80AD1
:1040100081EE93E00E94B71D60E083E00E941319D7
:10402000F12C1DE180912D04F816A8F51F9DF001DB
:104030001124EB5BF94F8081863038F4833078F4BB
:10404000813038F1C4E6D0E00CC0863029F08730EA
:1040500001F5C0EDD7E005C0C8ECD0E002C0C0E972
:10406000D1E00E9420259E0140E050E00E940E33E6
:104070009E01369527954901A12CB12C21E0861689
:104080009706A806B90608F020E0622F80E00E949B
:104090001319F394C7CFDF91CF911F910F91FF9028
:1040A000EF90DF90CF90BF90AF909F908F9008954A
:1040B00085E895E0892B81F08CED95E00E946222E5
:1040C0008FEB95E00E94622282EA95E00E946222D4
:1040D00085E895E00C946222089581EE93E00C94BB
:1040E0003A1A8091AF0690E02091B006821B9109A8
:1040F00008952091B0068091AF06281750F4E22F62
:10410000F0E0EF54F94F808190E02F5F2093B006EC
:1041100008958FEF9FEF0895E091B0068091AF066C
:10412000E81730F4F0E0EF54F94F808190E0089503
:104130008FEF9FEF08950895CF92DF92EF92FF9255
:104140000F931F93CF93DF937C01CB018A012091C2
:104150008C06222389F0EB016B01C40ED51ECC1511
:10416000DD0569F06991D701ED91FC910190F08135
:10417000E02DC7010995F3CF642F0E940C21C801DF
:10418000DF91CF911F910F91FF90EF90DF90CF9033
:104190000895CF93DF931F92CDB7DEB76983209147
:1041A0008C062223D1F020918D06203240F021E0B0
:1041B00030E0FC013383228380E090E015C08091E1
:1041C0008E06E82FF0E0E157F94F998190838F5FD9
:1041D00080938E0680938D0605C061E0CE01019626
:1041E0000E940C2181E090E00F90DF91CF91089523
:1041F000FC011382128248EE53E060E070E04483D9
:1042000055836683778380E991E091838083089565
:1042100080E896E00C94F820613298F420913E07F3
:10422000243089F46093F306FC0185EF96E0DC010D
:104230002A2F281B261718F421912D93F9CF80E0FF
:10424000089581E0089582E0089585ED8093BC0093
:104250008091BC0084FDFCCF10923E07089585EC50
:104260008093BC0010923E0708951F920F920FB6E4
:104270000F9211242F933F934F935F936F937F93EC
:104280008F939F93AF93BF93EF93FF938091B90068
:10429000887F803609F49CC068F5883209F45BC0D9
:1042A00090F4803109F454C038F4882309F4F5C03F
:1042B000883009F44DC0F5C0883109F44CC0803213
:1042C00009F45DC0EEC0803409F468C048F480335E
:1042D00009F455C0883309F0E4C08093D106A8C022
:1042E000803509F44FC0883509F45DC0883409F081
:1042F000D8C0D5C0883909F4C6C0A8F4883709F4F5
:1043000067C038F4883609F463C0803709F460C0A8
:10431000C8C0883809F4B7C0803909F45FC0803854
:1043200009F0BFC05BC0803B09F485C038F4803A17
:1043300009F466C0883A09F47EC0B3C0803C09F431
:10434000A6C0883C09F4A3C0883B09F489C0A9C071
:1043500080913D0710C0909116078091150798171E
:1043600070F5E091160781E08E0F80931607F0E05C
:10437000E95EF84F80818093BB0085EC85C0809317
:10438000D1068DC0E091160781E08E0F809316074D
:104390008091BB00F0E0E95EF84F808390911607B2
:1043A000809115076DC0E091160781E08E0F809314
:1043B00016078091BB00F0E0E95EF84F80838091A2
:1043C0003C0781116CC081E080933B0784EA60C0A8
:1043D00083E080933E071092D206CFCF8091D20621
:1043E000803208F050C0E091D20681E08E0F8093B9
:1043F000D2068091BB00F0E0ED52F94F8083BDCF33
:104400008091D206803230F4E091D206F0E0ED5295
:10441000F94F10820E9425216091D20670E0E09150
:104420003707F091380783ED96E009951092D20690
:104430000E942F2136C084E080933E071092F4063C
:104440001092F306E0913907F0913A0709958091AF
:10445000F306811105C081E08093F3061092F50602
:10446000E091F40681E08E0F8093F406F0E0EB50CB
:10447000F94F80818093BB009091F4068091F30600
:10448000981708F47ACF85E88093BC000AC085ECC1
:104490008093BC0010923E0704C01092D1060E9487
:1044A0002521FF91EF91BF91AF919F918F917F91C6
:1044B0006F915F914F913F912F910F900FBE0F9091
:1044C0001F90189520EA31E0FC0131832083089584
:1044D00020EA31E0FC01318320830C94E32A20EAB6
:1044E00031E0FC01318320830895CF93DF93EC0109
:1044F000842F4A834530B8F04630A9F04C3099F00B
:1045000098EE940F923078F04D3169F0942F977FA8
:10451000953061F09EEE940F963058F0473061F47C
:104520002EE230E00BC02BE230E008C028E230E0A1
:1045300005C021E330E002C025E230E03D832C835A
:1045400098EF980F943020F491E02CEF280F09C0D9
:104550009EEE980F943050F429E130E0281B310989
:1045600091E001C0990F2A95EAF731C0882321F123
:10457000813001F1823011F1833011F1843021F169
:10458000863001F18D30F1F08E30A1F08F30B1F036
:10459000803191F08131A1F0863181F0873181F055
:1045A000883191F0893171F08A3171F08B3171F479
:1045B00090E20DC098E00BC094E009C092E007C003
:1045C00091E005C090E803C090E101C090E49B83B6
:1045D00068876530B8F06630A9F06C3099F098EED5
:1045E000960F923078F06D3169F0962F977F953065
:1045F00061F09EEE960F963058F0673061F42EE22F
:1046000030E00BC02BE230E008C028E230E005C00B
:1046100021E330E002C025E230E03F832E8398EFB3
:10462000960F943038F4645091E001C0990F6A9568
:10463000EAF73FC09EEE960F943050F429E130E047
:10464000261B310991E001C0990F2A95EAF731C084
:10465000662321F1613001F1623011F1633011F113
:10466000643021F1663001F16D30F1F06E30A1F06F
:104670006F30B1F0603191F06131A1F0663181F0BD
:10468000673181F0683191F0693171F06A3171F010
:104690006B3171F490E20DC098E00BC094E009C05A
:1046A00092E007C091E005C090E803C090E101C02E
:1046B00090E4998761E00E94462660E08885DF915A
:1046C000CF910C944626AF92BF92DF92EF92FF9269
:1046D0000F931F93CF93DF9300D01F92CDB7DEB718
:1046E000FC01D62E43E0F42E41E050E060E070E0A3
:1046F000FA942FEFF21232C0228581E0D81201C065
:1047000022E090E0921779F0A481B5818C913381F9
:10471000832B8C93A481B5813C91838180958323E5
:104720008C939F5FEFCF6A81862F90E0A0E0B0E08E
:104730006627782F892F9A2F2981622B2B81205869
:10474000822B0F900F900F90DF91CF911F910F91BF
:10475000FF90EF90DF90BF90AF90089587E090E0DA
:10476000AA24A394B12CAC0EBD1EAF0CB11C2481A5
:104770003581D9011C910381102B1C93669B0FC0BE
:10478000D501EC908A019B01082E04C0000F111F77
:10479000221F331F0A94D2F7E02AEC920FC08A013D
:1047A0009B01082E04C0000F111F221F331F0A9403
:1047B000D2F70095D5012C9102230C9324813581E9
:1047C000D9010C911381109510231C93019778F651
:1047D0008FCF613021F0DC011B962C9101C022E0CB
:1047E000FC0122870480F581E02D3081DC011396E5
:1047F0002C9120952323208360E00C946323611186
:1048000007C0403411F423E001C021E0FC012387FC
:104810000C94E923CF92DF92EF92FF92FC01248D5A
:1048200034E0239FE00DF11D1124C484D584E68477
:10483000F7840E946323A7019601261B370B480BC0
:10484000590BCA01B901FF90EF90DF90CF90089506
:104850005F926F927F928F929F92AF92BF92CF9210
:10486000DF92EF92FF92CF93DF93EC01662E542EEE
:104870000E94E923712CC12CD12C76017514A9F06A
:104880000E9420254B015C01CE010E94B6058111DA
:1048900027C00E942025681979098A099B0964317B
:1048A000710581059105E0F4EFCFFE0184E0689E7B
:1048B000E00DF11D1124C486D586E686F78660E0FA
:1048C000CE01DF91CF91FF90EF90DF90CF90BF901E
:1048D000AF909F908F907F906F905F900C94E923A2
:1048E000CE010E94B605882359F060E0CE010E94F7
:1048F0006323C616D706E806F90614F46B017C019B
:104900007394BCCFFC01A481B5819C918381809577
:1049100089238C93A481B5818C919381892B8C936D
:1049200084E690E00C947725DC011496ED91FC91DF
:104930001597208113968C9180958223808308950A
:10494000EF92FF920F931F93CF93DF931F92CDB7F8
:10495000DEB77C01FC01148E81E0838700E010E06B
:1049600020E83FE3048B158B268B378B1486158646
:1049700016861786008F118F228F338F108A118A27
:10498000128A138AC70169830E948224C7010E9488
:1049900094244981F701648DC7010F90DF91CF9175
:1049A0001F910F91FF90EF900C94FF231F920F9295
:1049B0000FB60F9211242F933F938F939F93AF9332
:1049C000BF938091400790914107A0914207B09119
:1049D000430730913F0723E0230F2D3720F4019642
:1049E000A11DB11D05C026E8230F0296A11DB11D12
:1049F00020933F078093400790934107A09342077D
:104A0000B09343078091440790914507A0914607D2
:104A1000B09147070196A11DB11D80934407909363
:104A20004507A0934607B0934707BF91AF919F9169
:104A30008F913F912F910F900FBE0F901F9018955F
:104A40002FB7F89460914007709141078091420719
:104A5000909143072FBF08953FB7F8948091440782
:104A600090914507A0914607B091470726B5A89BAE
:104A700005C02F3F19F00196A11DB11D3FBF66274C
:104A8000782F892F9A2F620F711D811D911D42E091
:104A9000660F771F881F991F4A95D1F70895CF9207
:104AA000DF92EF92FF92CF93DF936B017C010E9424
:104AB0002C25EB01C114D104E104F10489F00E941A
:104AC0002D2F0E942C256C1B7D0B683E734090F3AC
:104AD00081E0C81AD108E108F108C851DC4FEACFDB
:104AE000DF91CF91FF90EF90DF90CF9008958230CB
:104AF000910538F0880F991F880F991F0597019726
:104B0000F1F70895789484B5826084BD84B581609E
:104B100084BD85B5826085BD85B5816085BDEEE6C5
:104B2000F0E0808181608083E1E8F0E010828081A4
:104B300082608083808181608083E0E8F0E0808112
:104B400081608083E1E9F0E0808182608083808100
:104B500081608083E0E9F0E0808181608083E1EC26
:104B6000F0E08081846080838081826080838081A6
:104B700081608083E3ECF0E0808181608083E0EC01
:104B8000F0E0808182608083E2ECF0E080818160EF
:104B90008083EAE7F0E080818460808380818260A6
:104BA0008083808181608083808180688083089594
:104BB000823108F08251E82FF0E0ED5CFB4FE49188
:104BC00080917B00E3FB222720F930E095E0220F63
:104BD000331F9A95E1F78F7D822B80937B00E770DE
:104BE0008091220120E4829FC0011124E82BE093F0
:104BF0007C0080917A00806480937A0080917A00B2
:104C000086FDFCCF809178002091790090E0922B76
:104C1000089590E0FC013197EF30F105B0F5E058D0
:104C2000FF4F0C944F33809180008F7703C08091A9
:104C300080008F7D80938000089580918000877F21
:104C4000F9CF84B58F7702C084B58F7D84BD089578
:104C5000809190008F7707C0809190008F7D03C076
:104C600080919000877F8093900008958091C0008C
:104C70008F7703C08091C0008F7D8093C00008951E
:104C80008091C200877F8093C2000895CF93DF9305
:104C900090E0FC01E35AFB4F2491FC01E558FB4FE7
:104CA0008491882349F190E0880F991FFC01EB540F
:104CB000FB4FA591B49189559B4FFC01C591D491AF
:104CC0009FB7611108C0F8948C91209582238C9332
:104CD000888182230AC0623051F4F8948C91322F7B
:104CE000309583238C938881822B888304C0F89429
:104CF0008C91822B8C939FBFDF91CF9108950F935E
:104D00001F93CF93DF931F92CDB7DEB7282F30E0EC
:104D1000F901E15CFB4F8491F901E35AFB4F1491D7
:104D2000F901E558FB4F04910023C9F0882321F0D5
:104D300069830E9409266981E02FF0E0EE0FFF1FD2
:104D4000E955FB4FA591B4919FB7F8948C916111EF
:104D500003C01095812301C0812B8C939FBF0F90BE
:104D6000DF91CF911F910F910895CF93DF93282F5B
:104D700030E0F901E15CFB4F8491F901E35AFB4F0C
:104D8000D491F901E558FB4FC491CC2391F08111E6
:104D90000E940926EC2FF0E0EE0FFF1FE756FB4FB5
:104DA000A591B4912C912D2381E090E021F480E035
:104DB00002C080E090E0DF91CF910895CF93DF9320
:104DC0001F92CDB7DEB76983DC01ED91FC910280C3
:104DD000F381E02D41E050E0BE016F5F7F4F099508
:104DE0000F90DF91CF910895CF93DF93EC018C85E5
:104DF0009D8597FF05C082E00E94DE2B9D878C87F2
:104E00008C859D85DF91CF91089583E00C94362E9B
:104E1000FC018485958597FD06C082E00E94862B63
:104E200090E00196089582E00E94862B90E008951C
:104E3000FC018485958597FD05C02FEF3FEF3587F1
:104E40002487089582E00C94DE2BCF93DF93EC014E
:104E500080912A01882331F083E00E940F2C1816DC
:104E6000190634F081E090E09B838A8380E090E033
:104E7000DF91CF910895FC0120812E5F208342E4D1
:104E800050E063EC74E080E80C94AA2CFC01818172
:104E90009081913A59F4813209F03CC047E050E0EA
:104EA00063E271E080E00E94AA2C43C0913291F548
:104EB000803239F467E070E083E291E00E94DB2CFD
:104EC00006C0823209F035C0828180932A01809128
:104ED000230190912401A0912501B0912601803BEE
:104EE0009440A105B105C1F480912A0180FD14C050
:104EF00087E797E790930108809300082BE088E10B
:104F000090E00FB6F894A895809360000FBE2093B0
:104F100060000FC080E0089588E10FB6F894809398
:104F20006000109260000FBEA895109201081092C8
:104F3000000881E008952FEF3FEFFC0135872487BB
:104F4000089510924B0710924A0788EE93E0A0E074
:104F5000B0E080934C0790934D07A0934E07B09319
:104F60004F0788EA91E090934907809348078FEFB5
:104F70009FEF90935507809354070895FC01818D0E
:104F8000228D90E0805C9F4F821B91098F7399273F
:104F90000895FC01918D828D981731F0828DE80F74
:104FA000F11D858D90E008958FEF9FEF0895FC012E
:104FB000918D828D981761F0828DDF01A80FB11D50
:104FC0005D968C91928D9F5F9F73928F90E0089574
:104FD0008FEF9FEF089589EF98E2892B49F080E0E9
:104FE00090E0892B29F00E94F92881110C9400008F
:104FF0000895FC01848DDF01A80FB11DA35ABF4F96
:105000002C91848D90E001968F739927848FA689C7
:10501000B7892C93A089B1898C9180648C93938DEE
:10502000848D981306C00288F389E02D80818F7DDE
:1050300080830895CF93DF93EC01888D8823C9F096
:10504000EA89FB89808185FD05C0A889B9898C9191
:1050500086FD0FC00FB607FCF5CF808185FFF2CF2C
:10506000A889B9898C9185FFEDCFCE010E94F927DF
:10507000E7CFDF91CF910895CF92DF92FF920F9308
:105080001F93CF93DF931F92CDB7DEB76C0181E002
:10509000D60158968C9358975B969C915B975C963B
:1050A0008C915C97981307C05096ED91FC915197A5
:1050B000808185FD2EC0F601038D10E00F5F1F4F2C
:1050C0000F731127F02EF601848DF81211C00FB660
:1050D00007FCF9CFD6015096ED91FC915197808154
:1050E00085FFF1CFC60169830E94F9276981EBCF63
:1050F000838DE80FF11DE35AFF4F6083D6015B9665
:105100000C935B975296ED91FC915397808180624E
:105110000CC0D6015696ED91FC915797608350963E
:10512000ED91FC91519780818064808381E090E0D3
:105130000F90DF91CF911F910F91FF90DF90CF9053
:1051400008951F920F920FB60F9211242F938F93F1
:105150009F93EF93FF93E091A807F091A9078081B7
:10516000E091AE07F091AF0782FD12C0908180916F
:10517000B1078F5F8F732091B207821751F0E091D2
:10518000B107F0E0E856F84F958F8093B10701C062
:105190008081FF91EF919F918F912F910F900FBE82
:1051A0000F901F9018951F920F920FB60F92112417
:1051B0002F933F934F935F936F937F938F939F931F
:1051C000AF93BF93EF93FF9388E997E00E94F9278D
:1051D000FF91EF91BF91AF919F918F917F916F91CF
:1051E0005F914F913F912F910F900FBE0F901F90A5
:1051F000189588E997E00E94BE2721E0892B09F4E1
:1052000020E0822F089510929B0710929A0788EE53
:1052100093E0A0E0B0E080939C0790939D07A0935B
:105220009E07B0939F0788EB91E090939907809336
:1052300098078DEC90E09093A5078093A4078CECE1
:1052400090E09093A7078093A60788EC90E0909356
:10525000A9078093A80789EC90E09093AB0780930F
:10526000AA078AEC90E09093AD078093AC078EEC90
:1052700090E09093AF078093AE071092B107109221
:10528000B2071092B3071092B4070895FF920F93DC
:105290001F93CF93DF93EC01F62EE881F981048010
:1052A000F581E02D09958C01E881F9810680F7816F
:1052B000E02D6F2DCE010995C8019927DF91CF917F
:1052C0001F910F91FF900895FC0120812F5F208393
:1052D00040E250E065E875E080E80C94AA2C49E1D2
:1052E00055E065EA75E080E80C94AA2CEF92FF92F5
:1052F0000F931F93CF93DF931F92CDB7DEB78983B0
:105300008B017A0141E050E0BE016F5F7F4F84E086
:105310000E940F2CA701B80184E40E940F2C0F906B
:10532000DF91CF911F910F91FF90EF90089585E04D
:105330000C94862BAB01BC0185E00C94982BFC01EE
:1053400081819081913A31F4982F9D7F81E0913055
:1053500099F413C0913281F48A3051F08B3019F0F6
:10536000893051F403C0828180932C0181E008953B
:10537000828180932B01FACF80E00895CF92DF9253
:10538000EF92FF920F931F93CF93DF93CDB7DEB7CA
:105390002B970FB6F894DEBF0FBECDBF69837A831B
:1053A0004B835C832D833F70802F8295807F382BC9
:1053B0003E83A4E016950795AA95E1F70F83C8866A
:1053C000D986EA86FB864BE050E0BE016F5F7F4FD7
:1053D00084E00E9476292B960FB6F894DEBF0FBEAC
:1053E000CDBFDF91CF911F910F91FF90EF90DF9094
:1053F000CF90089548E050E082E00C947629CF9356
:10540000DF93DC01683818F0E8E7E60F25C0E62FE7
:10541000F0E067FF11C0E058F10981E090E001C0C1
:10542000880FEA95EAF714969C911497982B149696
:105430009C931497E0E010C0EB5FFA4FE491EE23E9
:1054400009F440C0E7FF08C014968C91149782605D
:1054500014968C931497EF7716968C9116978E1757
:1054600041F117968C9117978E1719F118968C9118
:1054700018978E17F1F019968C9119978E17C9F01D
:105480001A968C911A978E17A1F01B968C911B97E8
:105490008E1779F080E090E0ED01C80FD91F2E81C2
:1054A000211102C0EE8305C0019686309105A1F757
:1054B00009C0BD016C5F7F4FCD010E94FA2981E0D8
:1054C00090E008C081E090E013969C938E93129731
:1054D00080E090E0DF91CF910895683818F0E8E718
:1054E000E60F25C0E62FF0E067FF12C0E058F10993
:1054F00021E030E001C0220FEA95EAF72095DC01B7
:1055000014963C911497322314963C93E0E00FC01C
:10551000EB5FFA4FE491EE2329F1E7FF08C0DC01CD
:1055200014962C9114972D7F14962C93EF7720E0EE
:1055300030E0EE2351F0DC01A20FB31F16964C9120
:1055400016974E1302C016961C922F5F3F4F2630BF
:10555000310579F7BC016C5F7F4F0E94FA2981E029
:1055600090E0089580E090E00895FC011682178293
:1055700010861186128613861482BC016C5F7F4FE1
:105580000C94FA29109242081092390810923808A7
:1055900088EC91E090933708809336080895089539
:1055A0000E9482250E94CF2A83E498E00E94C12EA7
:1055B0000E94211DCBEED7E20E94271F2097E1F326
:1055C0000E94EB27F9CF0C941E34CF92DF92EF921A
:1055D000FF920F931F93CF93DF936C017A01EB013E
:1055E000E60EF71E00E010E0CE15DF0561F06991D0
:1055F000D601ED91FC910190F081E02DC601099555
:10560000080F191FF1CFC801DF91CF911F910F91A2
:10561000FF90EF90DF90CF90089540914A0850910D
:105620004B08209148083091490842175307B4F4B9
:105630009091E8009570E1F39091E80092FD19C017
:105640008093F10080914A0890914B0801968F73E6
:105650009927892B19F48EEF8093E80080914A08EE
:1056600090914B08019690934B0880934A0881E0F3
:10567000089580E00895CF92DF92FF920F931F93D9
:10568000CF93DF931F92CDB7DEB7082F162F862F4B
:10569000880F8E5F99830E940D2B83E00E940D2B53
:1056A000F02EC02E9981D92E8C2D8F19811778F468
:1056B000F60184910E940D2B082F80E00E940D2B93
:1056C0008023FFEFCF1ADF0A8111EECF01C081E006
:1056D0000F90DF91CF911F910F91FF90DF90CF90AE
:1056E0000895615030F02091F100FC012083019673
:1056F000F8CF289884E680934D0808952FB7FC01D1
:105700002083F89467706093E9000895CF93DF9346
:105710001F92CDB7DEB7682FCE0101960E947E2B77
:105720008091F20099819FBF0F90DF91CF910895F2
:10573000FF920F931F93CF93DF9300D0CDB7DEB7C7
:10574000F62E8A0190914C08992311F057FF03C05F
:105750008FEF9FEF2BC0682FCE0101967A830E94B6
:105760007E2B8091F20090E0A8017A81801791074A
:105770000CF4AC01EF2DF72FF40E84E6FE1639F091
:10578000289880934D089091F1009193F7CF41159F
:10579000510521F08091F200882321F089818FBF8B
:1057A000CA0104C08BE68093E800F8CF0F900F90F9
:1057B000DF91CF911F910F91FF900895CF93DF93C9
:1057C0001F92CDB7DEB741E050E0BE016F5F7F4F63
:1057D0000E94982B019719F4898190E002C08FEF05
:1057E0009FEF0F90DF91CF910895CF93DF931F929A
:1057F000CDB7DEB7682FCE0101960E947E2B909127
:10580000E800892F807295FF04C09091F20080E437
:10581000891B99819FBF0F90DF91CF9108956F925F
:105820007F928F929F92AF92BF92CF92DF92EF9230
:10583000FF920F931F93CF93DF931F92CDB7DEB7E5
:10584000782E7B01C42EB52E80914C08882369F0F8
:10585000042F152F8AEFD82E872D8072982E9AE369
:10586000A92E872D8074882E11C08FEF9FEF57C00F
:10587000872D0E94F52B682E81110CC0DA94A9F3B4
:1058800061E070E080E090E00E944F250115110575
:1058900079F73BC0282F30E0021713070CF4602E75
:1058A000672DCE0101960E947E2B8091E80085FF36
:1058B00029C0262D30E0021B130B992039F06A9481
:1058C0008FEF6816B1F01092F100F9CFF701862D35
:1058D00077FE07C0815058F094919093F100319673
:1058E000F9CF815020F091919093F100FACFE20E20
:1058F000F31E8091E80085FF0FC00115110511F41A
:1059000081100AC089818FBFC1CF5D9884E68093E2
:105910004E088C2D9B2D03C0A092E800F3CF0F9072
:10592000DF91CF911F910F91FF90EF90DF90CF907B
:10593000BF90AF909F908F907F906F90089510923E
:10594000E90010924B0810924A08909349088093FE
:1059500048080895CF92DF92FF920F931F93CF9341
:10596000DF9300D0CDB7DEB7F82E8A016B010115A9
:105970001105B1F0F601F7FE02C0849101C08081EB
:1059800049835A830E940D2B01501109FFEFCF1A52
:10599000DF0A49815A818111EACF8FEF9FEF01C061
:1059A000CA010F900F90DF91CF911F910F91FF903F
:1059B000DF90CF9008951F93CF93DF931F92CDB7C1
:1059C000DEB7162F2091E80022FFFCCF612F7983EC
:1059D0000E94712B8BEF8093E800812F7981972FA4
:1059E0000F90DF91CF911F910895CF93DF931F9276
:1059F000CDB7DEB71982CE0101960E943B27CE01BA
:105A000001960E946429898190E00F90DF91CF91E7
:105A100008951F920F920FB60F921124EF92FF92EA
:105A20000F931F932F933F934F935F936F937F93A6
:105A30008F939F93AF93BF93EF93FF93CF93DF9396
:105A4000CDB7DEB76297DEBFCDBF1092E90080917F
:105A5000E80083FFEEC068E0CE010A960E94712B39
:105A600082EF8093E8009A8597FF05C08091E80057
:105A700080FFFCCF03C08EEF8093E800892F8076F3
:105A800009F0B9C08B85811105C01092F100109208
:105A9000F100C8C0282F2D7F213009F4C3C0853004
:105AA00049F48091E80080FFFCCF8C85806880936A
:105AB000E300B8C0863009F076C02D85E888F98803
:105AC000223071F580E090E02A8B0E949F2C0E948A
:105AD000F52C99E08E010F5F1F4FF801392F1192BD
